:02000000762860
:10000800FF00030E8301A4000A08A3008A017D08EB
:10001800A000051811288512122885160330FB0048
:100028008A30FC005530FD00FD0B1828FC0B182801
:10003800FB0B1828000000008518242885122528A5
:1000480085160330FB008A30FC005530FD00FD0B9F
:100058002B28FC0B2B28FB0B2B2800000000051974
:1000680037288512382885160330FB008A30FC00B3
:100078005530FD00FD0B3E28FC0B3E28FB0B3E28AF
:100088000000000085194A2885124B288516033080
:10009800FB008A30FC005530FD00FD0B5128FC0B9D
:1000A8005128FB0B5128000000008B102008FD0090
:0E00B80023088A00240E8300FF0E7F0E09002D
:0E00C6008312031322088A002108820008001A
:1000D40063208A110A128000840AA10A0319A20A61
:0800E400F003031D6A28080067
:1000EC000730831603139F008501013086008B17A0
:1000FC000B160B130730831285008316011783121E
:10010C0085015330FD00FD0B8928831601138312E2
:0E011C0085015330FD00FD0B912880289428AA
:02400E004A2F37
:00000001FF
