:02000000DE2BF5
:100006007B15FB1F0D280130F300F201F101F00111
:08001600FA0DF20CFF300800A6
:08001E00FA1FF2130030080084
:0E002600F201F101F001F801F30100300800D1
:10003400FB09FA09F909F809F80A0319F90A031975
:08004400FA0A0319FB0A080087
:10004C007408F8027508031C750FF9027608031C76
:10005C00760FFA027708031C770FFB02F30D0730BB
:10006C00FC00730DF80DF90DFA0DFB0D7408731CE3
:10007C004D28F8027508031C750FF9027608031C4D
:10008C00760FFA027708031C770FFB025A28F80741
:10009C0075080318750FF90776080318760FFA0719
:1000AC0077080318770FFB07F30DFC0B3728720D3D
:1000BC00F80DF90DFA0DFB0D7408731C7328F8027A
:1000CC007508031C750FF9027608031C760FFA02EB
:1000DC007708031C770FFB028028F80775080318B4
:1000EC00750FF90776080318760FFA0777080318C7
:1000FC00770FFB07F20D0730FC00720DF80DF90DB0
:10010C00FA0DFB0D7408721C9928F8027508031C73
:10011C00750FF9027608031C760FFA027708031C98
:10012C00770FFB02A628F80775080318750FF90757
:10013C0076080318760FFA0777080318770FFB0772
:10014C00F20DFC0B8328710DF80DF90DFA0DFB0D5A
:10015C007408721CBF28F8027508031C750FF9028D
:10016C007608031C760FFA027708031C770FFB0244
:10017C00CC28F80775080318750FF90776080318CB
:10018C00760FFA0777080318770FFB07F10D073086
:10019C00FC00710DF80DF90DFA0DFB0D7408711CB6
:1001AC00E528F8027508031C750FF9027608031C84
:1001BC00760FFA027708031C770FFB02F228F80778
:1001CC0075080318750FF90776080318760FFA07E8
:1001DC0077080318770FFB07F10DFC0BCF28700D78
:1001EC00F80DF90DFA0DFB0D7408711C0B29F802B2
:1001FC007508031C750FF9027608031C760FFA02BA
:10020C007708031C770FFB021829F80775080318E9
:10021C00750FF90776080318760FFA077708031895
:10022C00770FFB07F00D0730FC00700DF80DF90D82
:10023C00FA0DFB0D7408701C3129F8027508031CAB
:10024C00750FF9027608031C760FFA027708031C67
:10025C00770FFB023E29F80775080318750FF9078D
:10026C0076080318760FFA0777080318770FFB0741
:10027C00F00DFC0B1B29701851297408F807750830
:10028C000318750FF90776080318760FFA07770825
:08029C000318770FFB070800AF
:1002A400FB14FB1F5C29FF30F300F200F100F000A7
:0802B400FA0DF20CFF30080006
:0E02BC008312031329088A0028088200080014
:0E02CA0000000000000000000000000008001E
:1002D8007B14FB1F7729F201FA1FFF30F200F100AF
:0A02E800F000FA0DF20CFF300800E0
:1002F200A1017208031D8E297108F2007008F10035
:10030200F001A1157208031D8E297108F200F10196
:10031200A1112116720803199C292108F302031D59
:10032200031CA0290310F21BA429F00DF10DF20DFC
:10033200F30B9429A0290130FC001320A7290230D5
:0E034200FC000320A7290430FC000F20080057
:10035000831203137408003A031DC3297508003A79
:10036000031DC3297608003A031DC3297708003A04
:10037000031DC329FF30F000FF30F100FF30F20011
:100380007F30F3005C2A83120313FC01F71BFC0A85
:10039000FD01FB01FA01F901F8017308720471040F
:1003A00070040319572A73087706A000A01BFD09E3
:1003B000F71FE529F409F509F609F709F40A031905
:1003C000F50A0319F60A0319F70AF31FF229F009CF
:1003D000F109F209F309F00A0319F10A0319F20A03
:1003E0000319F30A73087704A000A01B132A262020
:1003F000FC1B302AFD1F572AF009F109F209F30905
:10040000F00A0319F10A0319F20A0319F30AF809A9
:10041000F909FA09FB09F80A0319F90A0319FA0A92
:100420000319FB0A572AF71F2A2AF31B242A7308E9
:10043000FB007208FA007108F9007008F800F30177
:10044000F201F101F001FA29F301F201F101F001E9
:10045000F00A0034F309F209F109F009FC17F72951
:10046000F80A0319F90A0319FA0A0319FB0A7408AE
:100470007802031DFA2975087902031DFA29760806
:100480007A02031DFA2977087B02031DFA29FB0172
:10049000FA01F901F801F00A0319F10A0319F20A45
:1004A0000319F30AF31FFA29A0012016FF34A00153
:0A04B0007C1C5B2A1A20003E0800A5
:1004BA0083120313FB017308031D77080319B42A77
:1004CA0072087606FA007708F3077E30031C712A51
:1004DA00F3020318B72A742AF302031CBA2A720811
:1004EA00F8007108FC007008FD00F817F6170310F1
:1004FA00F201F101F0011830A1007D1C8E2A740866
:10050A00F00775080318750FF10776080318760FB8
:10051A00F207F20CF10CF00CF80CFC0CFD0C0310B9
:10052A00A10B822AF21B9E2AF80DF00DF10DF20D95
:10053A00F3037B1B701CB02AF81FB02AF00A0319B8
:10054A00F10A0319F20A031DB02AF20CF10CF00C9D
:10055A00F30A0319B72AFA1FF2130030BC2A013032
:10056A001320BC2A02305221BC2A04300320000086
:02057A00080077
:10057C0083120313FB01FC01F80173080319362BDA
:10058C007208FA00F2179E30F302F31F262BF309C0
:10059C00F30A08307302031CFB2AF300F80D7008F1
:1005AC00F8007108F0007208F100F20108307302D3
:1005BC00031CFB2AF300F80D7008F8007108F0001A
:1005CC00F10108307302031CFB2AF300F80D7008CC
:1005DC00F800F00108307302031CFB2AF300F80D3D
:1005EC00F8017308031D0310052B73080319052B61
:1005FC000310F20CF10CF00CF80CF30BFE2A7B1B25
:10060C00781C132B031C132BF80A0319F00A03197B
:10061C00F10A0319F20AF21B332BFA1F362BF209DB
:10062C00F109F009F809F80A0319F00A0319F10A9B
:10063C000319F20A362BF201F101F001F801362B05
:10064C007B14FB1F392BF201FA1F392BF200F1003E
:10065C00F000F800FA0DF20C392B0130FC003B2BAA
:10066C000030FC003B2BFF30FC00FC0803193F2B37
:10067C006C217208F3007108F2007008F100780820
:04068C00F000080072
:100690005E218A110A128000840AA80A0319A90A95
:0806A000F003031D482B0800C4
:1006A800831203137008F8007108F000F101F201D9
:1006B800F301FB01FC019630F300FA017008F10028
:0C06C8007808F000F801F2017921080028
:1006D400831203139F01C0309F0483161F179F17B3
:1006E40083122A08F000F00D7010F00D7010F00D58
:1006F400701070089F041F1465211F151F1D842B83
:100704000000802B1F101E08F100F00183161E0844
:08071400F0040030F1040800BC
:10071C00B22B3F3083120313F000DD2B0630F000B8
:10072C00DD2B5B30F000DD2B4F30F000DD2B663025
:10073C00F000DD2B6D30F000DD2B7D30F000DD2B7B
:10074C000730F000DD2B7F30F000DD2B6F30F00038
:10075C00DD2BFF30F000DD2B831203132A08303A17
:10076C0003198F2B2A08313A0319942B2A08323A91
:10077C000319972B2A08333A03199A2B2A08343A6F
:10078C0003199D2B2A08353A0319A02B2A08363A4F
:10079C000319A32B2A08373A0319A62B2A08383A2F
:1007AC000319A92B2A08393A0319AC2BAF2B0800D3
:1007BC000430831603139F000130850086018801E5
:1007CC0083128601AA016A235423E330F4003630E5
:1007DC00F5007A30F6007D30F7005D22BE227008FD
:1007EC00A4007108A5007208A6007308A7000A30BF
:1007FC00F400F501F601F7012408F0002508F100DA
:10080C002608F2002708F300A8217808F0007908E0
:10081C00F1007A08F2007B08F3007008A2000A309D
:10082C00F400F501F601F7012408F0002508F100A9
:10083C002608F2002708F300A8210A30F400F5017D
:10084C00F601F701A8217808F0007908F1007A0880
:10085C00F2007B08F3007008A3008030F0008030B9
:10086C0027067002031D442C2608003C031D442C53
:10087C002508003C031D442C24081E3C0318892C1D
:10088C0080302706F00080307002031D572C00309A
:10089C002602031D572C00302502031D572C28302F
:1008AC0024020318892C30302207AA008E238312CD
:1008BC00031370088600081088140D30FB00AF304D
:1008CC00FC00B630FD00FD0B692CFC0B692CFB0BFE
:1008DC00692C0000881030302307AA008E23831265
:1008EC0003137008860008140D30FB00AF30FC00B9
:1008FC00B630FD00FD0B802CFC0B802CFB0B802CF0
:0C090C00000008108A2CE82B332C8B2CE8
:02400E004A2F37
:00000001FF
