:0200000038289E
:0E0006008312031321088A00200882000800DC
:10001400831603139816903083129800831687175B
:10002400071383128C1E19281A08F00013280800DD
:0E0034000030831203138C1A0130F000080014
:10004200831203131A08F100981C29281812181693
:060052007108F000080037
:1000580003208A110A128000840AA00A0319A10A3F
:08006800F003031D2C28080021
:100070008316031386018312860133308316990099
:1000800018150A200230FB000430FC00BA30FD00D5
:10009000FD0B4828FC0B4828FB0B482800001A20C1
:1000A0007008031956282120700886004F28572809
:02400E004A2F37
:00000001FF
