:100000000A128A111A2D00308A000408840A820715
:1000100000347334613465346534643473346F345C
:100020006C347534743469346F346E3473342E34F4
:1000300062346C346F346734733470346F347434B6
:0A0040002E3463346F346D34003445
:100A340060308313FD000530FE003B30FF002030A2
:100A440084000A128A112E2583010A128A117B2D31
:100A54007E088A007F0882002A250A128A118000F3
:100A6400840A04087D0603190034FF0A0319FE0AE8
:100A74002E2D043404340434043415340E34043474
:100A8400003407340D341734103417340D3407345C
:100A940000341F341F3412340434093410341F3426
:100AA40000341F341F3409340434123401341F3425
:100AB4000034043404340434043415340E3404345B
:100AC400003404340E34153404340434043404344B
:100AD4000034043404340434043415340E3404343B
:100AE400003404340E34153404340434043404342B
:100AF40000340A128A11D9250A128A1101300A1205
:100B04008A11F4260A128A112630F30001300A12DF
:100B14008A112A270A128A1106300A128A11952785
:100B24000A128A1107300A128A1195270A128A11A9
:100B34001A30FC005E30FB008630FA00FA0BA02D60
:100B4400FB0BA02DFC0BA02D64000130F301F4017C
:100B5400F40A0A128A11BE250A128A110630FC0010
:100B64001330FB00B130FA00FA0BB62DFB0BB62D97
:100B7400FC0BB62DBD2DA72DF700F80174087802E3
:100B8400031808007308F5000310F50D0310F50DA4
:100B94007708F6000310F60D0310F60D0310760D1A
:100BA40075041038A4260A128A11F80AC02D0610FA
:100BB4008610061183160030061086100611CA2608
:100BC4000A128A1100306B270A128A11831202302A
:100BD40086100610F9000430F800BA30F700F70B5D
:100BE400F12DF80BF12DF90BF12D64000330CA2619
:100BF4000A128A110615FE2DFF2D6400FA2706112C
:100C0400032E042E64002730F800F530F700F70BAC
:100C1400092EF80B092E0330CA260A128A1106156A
:100C2400132E142E6400FA270611182E192E6400B0
:100C3400D630F7001D2E1E2EF70B1C2E6400033039
:100C4400CA260A128A110615272E282E6400FA27AE
:100C540006112C2E2D2E64000D30F800FB30F70009
:100C6400F70B322EF80B322E372E0230CA260A1218
:100C74008A1106153D2E3E2E6400FA270611422ED7
:100C8400432E64002830A4260A128A110C30A426AC
:100C94000A128A110130A4260A128A110630A426E7
:100CA4000A128A112030F300003082260A128A11B7
:100CB4002830F300013082260A128A113030F30002
:100CC400023082260A128A113830F3000330822659
:100CD4000A128A114030F300043082260A128A1163
:100CE4004830F300053082260A128A115030F3008E
:100CF400063082260A128A115830F3000730822EF9
:100D0400F500083075020318A22E7508F4000310CC
:100D1400F40D0310F40D0310740D403EA4260A12C2
:100D24008A11F60176087307F4008400831300081F
:100D340095270A128A110830F60A7602031C942EAB
:100D44008030A42EF200BB270A128A110038031D3A
:100D5400A52EFA2786100610720E0F39CA260A121B
:100D64008A110615B52EB62E6400FA270611BA2E7E
:100D7400BB2E64007208CA260A128A110615C22EF6
:100D8400C32E6400FA270611C72EC82E640008007B
:100D9400F100711CD02EFA270616D22EFA2706125D
:100DA4007108F0000310F00C701CDB2EFA27861675
:100DB400DD2EFA278612F3270A128A11701CE52EFB
:100DC400FA270617E72EFA270613F3270A128A11C1
:100DD4000310F00C701CF12EFA2786170800FA276E
:100DE40086130800F800780884000A128A11032088
:100DF4000A128A1100380319080036270A128A11C8
:100E0400F600F701112F0130F3012A270A128A1183
:100E14001E2F0030F3012A270A128A111E2F770889
:100E2400003A0319162F1E2F7608283A0319052FA6
:100E3400403A03190B2F1E2F780884000A128A11D6
:100E440003200A128A1195270A128A11F80AF52E2C
:100E5400F500F40006300310F40DFF3E031D2D2FA2
:100E6400730874078038A42E0F306B270A128A1176
:100E740083128614061006153F2F402F640000309D
:100E8400FA27861B8030061B4038861A2038061A3B
:100E94001038F20006114E2F4F2F6400FA27061562
:100EA400532F542F64000030FA27861B0830061B8A
:100EB4000438861A0238061A0138F2040611622F21
:100EC400632F640000306B27F213831286107208BC
:100ED4000800F100711C712FFD270616732FFD27E2
:100EE40006127108F0000310F00C701C7C2FFD2713
:100EF40086167E2FFD278612EC270A128A11701C93
:100F0400862FFD270617882FFD270613EC270A12C4
:100F14008A110310F00C701C922FFD27861708000D
:100F2400FD2786130800F200BB270A128A11003835
:100F3400031D962FFA2786100614720E0F39CA263F
:100F44000A128A110615A62FA72F6400FA27061184
:100F5400AB2FAC2F64007208CA260A128A11061538
:100F6400B32FB42F6400FA270611B82FB92F6400E9
:100F740008000F306B270A128A1183128614061098
:100F84000615C42FC52F6400FA27861FD82F061113
:100F9400CB2FCC2F6400FA270615D02FD12F640055
:100FA400FA270611D52FD62F640001340611DA2F43
:100FB400DB2F6400FA270615DF2FE02F6400FA27E1
:100FC4000611E42FE52F640000306B2783120030F4
:100FD400861008007108F0000310F00C0310F00CE8
:100FE40008007108F0000310F00C0310F00C080066
:0C0FF40083120313080083160313080087
:02400E0072FF3F
:00000001FF
