:02000000FF2AD5
:0E000600213083120313FD00FD0B07280800B4
:100014000F3083120313FC004730FD00FD0B102842
:0A002400FC0B10280000000008008B
:06002E00000000000800C4
:0E003400F201F101F001F801F30100300800C3
:1000420083120313C41B2728861328288617441BF0
:100052002C2806132D280617C41A31288612322896
:100062008616441A362806123728061639183B28EF
:1000720006153C280611861517208611C419432837
:100082008613442886174419482806134928061758
:10009200C4184D2886124E28861644185228061275
:1000A200532806163918572806155828061186159A
:1000B20017208611391C5F280A20602803200800B7
:0800C200FA1FF21300300800E0
:1000CA007B15FB1F6F280130F300F201F101F001EB
:0800DA00FA0DF20CFF300800E2
:1000E2000E3083120313FD00FD0B7528000008007B
:1000F2008312031339104308C40021203914080065
:0E010200831203133B088A003A0882000800AB
:10011000710DF80DF90D7408F8027508031C750FC0
:10012000F902F00DF10D0F30FC00710DF80DF90D15
:100130007408701CA128F8027508031C750FF902D9
:10014000A628F80775080318750FF907F00DF10DCB
:10015000FC0B95287018B2287408F8077508031866
:08016000750FF907000008000B
:10016800A0017208031DC9287108F2007008F10087
:10017800F001A0157208031DC9287108F200F101E9
:10018800A011201672080319D7282008F302031DAE
:10019800031CDB280310F21BDF28F00DF10DF20D14
:1001A800F30BCF28DB280130FC001A20E2280230AC
:0E01B800FC006520E2280430FC0061200800F5
:1001C600FB14FB1FED28FF30F300F200F100F000F6
:0801D600FA0DF20CFF300800E5
:1001DE007B14FB1FFA28F201FA1FFF30F200F10028
:0A01EE00F000FA0DF20CFF300800DB
:1001F80083120313FB017308031D7708031953299E
:1002080072087606FA007708F3077E30031C102977
:10021800F302031856291329F302031C59297208FB
:10022800F8007108FC007008FD00F817F6170310B5
:10023800F201F101F0011830A0007D1C2D2974088D
:10024800F00775080318750FF10776080318760F7D
:10025800F207F20CF10CF00CF80CFC0CFD0C03107E
:10026800A00B2129F21B3D29F80DF00DF10DF20D1F
:10027800F3037B1B701C4F29F81F4F29F00A031941
:10028800F10A0319F20A031D4F29F20CF10CF00CC4
:10029800F30A03195629FA1FF21300305B290130BB
:1002A8001A205B290230E3205B2904306520000016
:0202B80008003C
:1002BA00831203139F01C0309F0483161F179F17D1
:1002CA0083123F08F000F00D7010F00D7010F00D61
:1002DA00701070089F041F1471201F151F1D7729A5
:1002EA00000073291F101E08F100F00183161E0872
:0802FA00F0040030F1040800DB
:1003020083120313FB0173080319BE297208FA0052
:10031200F2178E30F302F31FC129F309F30A0830F2
:100322007302031CA429F300F10D7208F100F2011B
:1003320008307302031CA429F300F10DF1017308C4
:10034200031D0310AC2973080319AC290310F20C26
:10035200F10CF30BA7297B1B711CB629031CB629D0
:10036200F10A0319F20AF21BCD29FA1FD029F20968
:10037200F109F10A0319F20AD029F201F101D02997
:100382007B14FB1FD329F201FA1FD329FF30F2009D
:10039200F100FA0DF20CD3290130FC00D52900300E
:1003A200FC00D529FF30FC00FC080319D929EF20F5
:0A03B2007108F0007208F100080065
:1003BC00831203137408003A031DED297508003AE3
:1003CC00031DED29FF30F0007F30F100080083128F
:1003DC000313FD01F901F8017108700403190034CD
:1003EC0071087506FA00FA1BFD09FB01F51F032ABB
:1003FC00F409F509F40A0319F50AF11F0A2AF009A0
:10040C00F109F00A0319F10A71087504FA00FA1BD4
:10041C001F2A88207B18322AFD1F0034F009F109AD
:10042C00F00A0319F10AF809F909F80A0319F90A8B
:10043C000034F51F2E2AF11B2A2A7108F9007008C6
:10044C00F800F101F001122AF101F001F00A003478
:10045C00F109F009FB0A0F2AF80A0319F90A7408C2
:10046C007802031D122A75087902031D122AF9015C
:10047C00F801F00A0319F10AF11F122A0000FF34E7
:02048C00080066
:10048E00831603138611061106128612061386139F
:10049E0083128611061186130613861206120A207F
:1004AE000A200A20861606168615172086110A209F
:1004BE008615172086110A208615172086110A2008
:1004CE0006128615172086110A208615172086110A
:1004DE00861286178615172086110A208613061691
:1004EE0086151720861106128615172086110A20EA
:1004FE0086151720861106168615172086110A20D6
:10050E0006128615172086118617061786160616EA
:0C051E008615172086110A2039140800E9
:10052A00A72A803083120313BF00BA2AC030BF0043
:10053A00BA2A9430BF00BA2AD430BF00BA2A80300F
:10054A00BF00BA2A831203133F08013A0319962AF5
:10055A003F08023A03199B2A3F08033A03199E2AC5
:10056A003F08043A0319A12AA42A4003F0003F08CD
:10057A00F0077008BF007008C40021203910C201BA
:10058A0042084107840000080319D32A4208410798
:10059A0084000008C3007920C20AC52A3914080059
:1005AA00831203137008F8007108F000F101F201D8
:1005BA00F301FB01FC019630F300FA01F01FEB2A6C
:1005CA00F809F009F80A0319F00AFA177008F10095
:0C05DA007808F000F801F201B4200800DD
:1005E60081208A110A128000840ABA0A0319BB0AFA
:0805F600F003031DF32A0800C5
:1005FE00303083120313A1003030A2003030A3003C
:10060E002030A4004430A5006530A6006730A70056
:10061E007230A8006530A9006530AA00AB015430D5
:10062E00AC006530AD006D30AE007030AF0065309F
:10063E00B0007230B1006130B2007430B30075306A
:10064E00B4007230B5006530B6003A30B700B8016C
:10065E00043083169F0047220C30C4002120013045
:10066E00C40021200130BF000130C0002C30C10079
:10067E009522BF015D2170088312BD007108BE0076
:10068E00D522E330F4003630F5007A30F6007D30B6
:10069E00F700FC2081217008BD007108BE000A30F1
:1006AE00F4000030F500DE217808F0007908F10042
:1006BE007008BC0030307007A3000A30F400003020
:1006CE00F5003D08F0003E08F100DE217008BD0087
:1006DE007108BE000A30F4000030F500DE21780803
:1006EE00F0007908F1007008BC0030307007A200ED
:1006FE000A30F4000030F5003D08F0003E08F1002D
:10070E00DE217008BD007108BE000A30F400003012
:10071E00F500DE217808F0007908F1007008BC00C1
:10072E0030307007A1000230BF000130C000213010
:10073E00C10095220230FB000430FC00BA30FD00EF
:10074E00FD0BA72BFC0BA72BFB0BA72B0000362BAF
:02075E00AF2BBF
:02400E004A2F37
:00000001FF
