:0200000056297F
:10000800FF00030E8301A7000A08A8008A017008F0
:10001800A4007108A3007B08A2007C08A1007D0849
:10002800A0008B103B202408F0002308F1002208D0
:10003800FB002108FC002008FD0028088A00270E84
:080048008300FF0E7F0E09008A
:0E0050008312031326088A0025088200080088
:10005E0028208A110A128000840AA50A0319A60A0A
:08006E00F003031D2F28080018
:1000760083120313F0010718F00A7008F20001302A
:10008600F0000030F100720803194E28F00DF10D52
:100096007010FF3E4728700871040319A128071045
:1000A6000D30FC00FB30FD00FD0B5728FC0B5728DC
:1000B6000000000007150630FB001330FC00AD30D1
:1000C600FD00FD0B6428FC0B6428FB0B6428000074
:1000D600000007110D30FC00FB30FD00FD0B712800
:1000E600FC0B71280000000087140630FB0013305B
:1000F600FC00AD30FD00FD0B7E28FC0B7E28FB0BC3
:100106007E280000000087100D30FC00FB30FD004B
:10011600FD0B8B28FC0B8B28000000000714063013
:10012600FB001330FC00AD30FD00FD0B9828FC0BE6
:100136009828FB0B9828000000005228F0010719A8
:10014600F00A7008F2000130F0000030F100720889
:100156000319B228F00DF10D7010FF3EAB287008A0
:1001660071040319052907110D30FC00FB30FD0051
:10017600FD0BBB28FC0BBB28000000000714063053
:10018600FB001330FC00AD30FD00FD0BC828FC0B56
:10019600C828FB0BC8280000000007100D30FC0023
:1001A600FB30FD00FD0BD528FC0BD5280000000018
:1001B60087140630FB001330FC00AD30FD00FD0B4C
:1001C600E228FC0BE228FB0BE22800000000871067
:1001D6000D30FC00FB30FD00FD0BEF28FC0BEF287B
:1001E6000000000007150630FB001330FC00AD30A0
:1001F600FD00FD0BFC28FC0BFC28FB0BFC2800007B
:100206000000B628871007110D30FC00FB30FD00FA
:10021600FD0B0B29FC0B0B29000000000714063010
:10022600FB001330FC00AD30FD00FD0B1829FC0B64
:100236001829FB0B18290000000007100D30FC00E0
:10024600FB30FD00FD0B2529FC0B252900000000D5
:1002560087140630FB001330FC00AD30FD00FD0BAB
:100266003229FC0B3229FB0B3229000000008710D3
:100276000D30FC00FB30FD00FD0B3F29FC0B3F2938
:100286000000000007150630FB001330FC00AD30FF
:10029600FD00FD0B4C29FC0B4C29FB0B4C290000E7
:0602A6000000052908001C
:1002AC000730831203139F008316051487018B17E5
:1002BC000B1683120708F1006F30F0007108031958
:1002CC006B29F00D7010FF3E6529831270088700B2
:1002DC000D30FC00FB30FD00FD0B7229FC0B72296C
:1002EC000000000007140630FB001330FC00AD309A
:1002FC00FD00FD0B7F29FC0B7F29FB0B7F290000E8
:10030C00000007100D30FC00FB30FD00FD0B8C29AC
:10031C00FC0B8C290000000087140630FB00133006
:10032C00FC00AD30FD00FD0B9929FC0B9929FB0B52
:10033C0099290000000087100D30FC00FB30FD00F7
:10034C00FD0BA629FC0BA6290000000007150630A2
:10035C00FB001330FC00AD30FD00FD0BB329FC0B92
:0E036C00B329FB0BB329000000005F29BC2958
:02400E004A2F37
:00000001FF
